:020000040000FA
:060000003EEF12F01200B9
:0600080004EF08F01200F5
:060018000CEF08F01200DD
:02001E000100DF
:0C002000AD0F0000CD0500000100000045
:04002C00DACFE4FF44
:10003000E2CFDAFFE9CFE4FFEACFE4FFF6CFE4FF57
:10004000F7CFE4FFF5CFE4FFF3CFE4FFF4CFE4FF15
:10005000FACFE4FF00EE00F0100EE80403E3EECF69
:10006000E4FFFBD700EE10F0080EE80403E3EECF48
:10007000E4FFFBD7E6529BEC08F0E55200EE17F0E8
:10008000080EE80403E3E5CFEDFFFBD700EE0FF029
:10009000100EE80403E3E5CFEDFFFBD7E5CFFAFF51
:1000A000E5CFF4FFE5CFF3FFE5CFF5FFE5CFF7FFB1
:1000B000E5CFF6FFE5CFEAFFE5CFE9FFE5CFDAFFD1
:1000C0001100D8CFE4FFE0CFE4FFE46EDACFE4FF25
:1000D000E2CFDAFFE652E552E5CFDAFFE550E5CFB1
:1000E000E0FFE5CFD8FF1000D9CFE6FFE1CFD9FF81
:1000F000FE0EDB50500A01E1A0D0060A01E195D0C6
:10010000200A01E18AD05B0A01E17FD0060A75E08E
:100110001B0A6DE0090A63E0010A59E00F0A4FE08B
:10012000010A45E0030A3BE0010A31E0070A27E043
:10013000010A1DE0030A13E07E0A09E0200A07E035
:10014000650A05E0046A056A066A076A7ED0F80E49
:10015000046E770E056E066A076A77D076D0F00EC9
:10016000046E7F0E056E066A076A6FD06ED0F80EB9
:10017000046EBF0E056E066A076A67D066D0F40E7D
:10018000046E3F0E056E066A076A5FD05ED0FC0EF5
:10019000046EDF0E056E066A076A57D056D0F20E5F
:1001A000046E5F0E056E066A076A4FD04ED0FA0ED7
:1001B000046E9F0E056E066A076A47D046D0F60E9B
:1001C000046E1F0E056E066A076A3FD03ED0FE0E13
:1001D000046EEF0E056E066A076A37D036D0F10E50
:1001E000046E6F0E056E066A076A2FD02ED0046863
:1001F0000568066A076A29D028D0F50E046E2F0E0E
:10020000056E066A076A21D020D0FD0E046ECF0E5F
:10021000056E066A076A19D018D0FB0E046E8F0EA1
:10022000056E066A076A11D010D0F30E046E4F0EE9
:10023000056E066A076A09D008D0F90E046EAF0E83
:10024000056E066A076A01D000D0E552E7CFD9FFF4
:100250001200270EBB6E1C0EBA6E1200BB6A0C0E8B
:10026000BA6E1200936A4E0ECB6E050ECA6E29EF5F
:1002700001F0D9CFE6FFE1CFD9FFEBDFFD0EDBCFF9
:1002800010F0FE0EDBCF11F0126A136A11AE02D02D
:100290001268136810C0E6FF11C0E6FF12C0E6FF47
:1002A00013C0E6FF60EC06F0E552E552E552E55278
:1002B000E552E7CFD9FF1200D9CFE6FFE1CFD9FF52
:1002C000CDDFFD0EDBCF10F0FE0EDBCF11F0126A9A
:1002D000136A11AE02D01268136810C0E6FF11C095
:1002E000E6FF12C0E6FF13C0E6FF60EC06F0E55241
:1002F000E552E552E552E552E7CFD9FF1200D9CFDA
:10030000E6FFE1CFD9FF020EE126870EE66E030E6F
:10031000E66EAFDFE552E552BA0EE66E010EE66E0E
:10032000A8DFE552E552DE6ADD6ADECF10F0DDCFF0
:1003300011F0D890115004E6100E105C000E115808
:1003400047E2370EE66EE66A94DFE552E552106A40
:10035000800E116E126A136AD950FB0FE96EFF0E00
:10036000DA20EA6EEE501016EE501116EE5012160C
:10037000EE501316105011101210131007E0DA0E81
:10038000E66EE66A99DFE552E55207D0BA0EE66EF0
:10039000010EE66E91DFE552E552FB0EDBCF10F069
:1003A000FC0EDBCF11F0FD0EDBCF12F0FE0EDBCF2B
:1003B00013F0010E1F0B07E0D890103611361236DD
:1003C0001336E806F9E1DF2A010E01E3DB2AADD797
:1003D000370EE66EE66A4DDFE552E552000EE66E38
:1003E000E66A6ADFE552E552020EE15C02E2E16A8A
:1003F000E552E16EE552E7CFD9FF1200D9CFE6FF13
:10040000E1CFD9FF020EE12635D82CDFDE6ADD6AA6
:10041000DECF10F0DDCF11F0D890115004E6030EBE
:10042000105C000E115817E214DFF40EE66E010E98
:10043000E66EEBEC06F0E552E55210DFF40EE66EE8
:10044000010EE66EEBEC06F0E552E552DF2A010EF6
:1004500001E3DB2ADDD702DF76EC11F0C4D8FED74A
:10046000020EE15C02E2E16AE552E16EE552E7CF9D
:10047000D9FF12000F0EC11202D80FEF08F0D9CF2A
:10048000E6FFE1CFD9FFE6521CD8DF6ADF50106EDD
:10049000116A400E105C000E115809E2DF50EA6A42
:1004A000600FE96E000EEA22EF6ADF2AEFD7000143
:1004B000E06BE16BE36BE46BE552E552E7CFD9FF0C
:1004C0001200D9CFE6FFE1CFD9FFE652938A939E7F
:1004D000240EAC6E900EAB6E710EAF6E020EB06E4F
:1004E000080EB86EAE50DF6EE552E552E7CFD9FF89
:1004F0001200D9CFE6FFE1CFD9FFFE0EDB50AD6E83
:10050000E552E7CFD9FF1200D9CFE6FFE1CFD9FFFF
:10051000040EE126D880000E05010055C20E0155DB
:10052000010E0255000E035501E23ED000C588F5CC
:1005300001C589F502C58AF503C58BF5400E146E19
:100540004B0E156E4C0E166E176A14C004F015C0D3
:1005500005F016C006F017C007F088C509F089C578
:100560000AF08AC50BF08BC50CF0D7EC07F004C07D
:1005700010F005C011F006C012F007C013F010060D
:10058000000E115A125A135A10C0DFFF010E11C08B
:10059000DBFF020E12C0DBFF030E13C0DBFFDF50D8
:1005A000AF6E010EDB50B06E040EE15C02E2E16A58
:1005B000E552E16EE552E7CFD9FF1200D9CFE6FF51
:1005C000E1CFD9FFE652ABA205D0AB98AE50DF6EBB
:1005D000AB8802D0AE50DF6EDF5000D0E552E5525E
:1005E000E7CFD9FF1200D9CFE6FFE1CFD9FF420E06
:1005F000E126200E0501E76E8F19E8AE02D0E73440
:1006000002D0E7508F5D03E36D50020B01E056D03E
:10061000400EE66ED950020FE66E000EDA20E66E4E
:10062000B1EC04F0E552E552E552DF6EDF50000810
:1006300043E20001E85140E1DFCFE6FFD950020F6D
:10064000E66E000EDA20E66E12EC05F0E552E55299
:10065000E552010EDB6ADF50F36E010EDBCFF4FFD3
:10066000F350F45C29E2D950020F146EDACF15F082
:10067000010EDB500F011424E96E000E1520EA6E06
:10068000EF50E66E31DDE55204C010F005C011F008
:1006900006C012F007C013F010C0E6FF11C0E6FF5D
:1006A00012C0E6FF13C0E6FF2ADEE552E552E5522E
:1006B000E552010EDB2ACFD7B6EC05F0420EE15C25
:1006C00002E2E16AE552E16EE552E7CFD9FF12009E
:1006D0001200120012001200E4EF03F0120037EFD4
:1006E00004F00501B20520E10501B3051DE1A09A62
:1006F000F0DF6D920501B36B0001100EE56F0E0E79
:10070000E66FE507000EE65BE551E611FAE16D8460
:10071000080EE56F070EE66FE507000EE65BE55194
:10072000E611FAE16D94A08A1200D9CFE6FFE1CF7D
:10073000D9FFFD0EDBCF06F0FE0EDBCF07F0050E76
:10074000061801E1075039E0E868061802E17F0E5B
:10075000071831E0030E061801E107502AE0020EE7
:10076000061801E1075023E0010E061801E10750C9
:100770001CE0740E061801E1075015E0750E06180E
:1007800001E107500EE0730E061801E1075007E083
:10079000720E061801E1075001E010D00FD09ADF69
:1007A0000DD096DF0BD095DF09D099DF07D096DF0B
:1007B00005D092DF03D08FDF01D000D0010E00D032
:0807C000E552E7CFD9FF12005A
:0807C800040130511F0B010870
:1007D00001E04CD03051600BE842E842E842E84288
:1007E000E842010801E042D0345103E0340501E061
:1007F0003DD03151220A35E0030A28E0010A17E012
:10080000210A0EE0010A01E031D00501F80EA46FC3
:10081000000EA56F080EA76FA86BA681A68F26D025
:100820000501F80EA46F000EA56FA68F1FD036C469
:10083000ACF537C4ADF50501000EA96F050EAA6F22
:10084000080EAE6F050EAF6FAB8F10D00501880E8E
:10085000A46F050EA56F070EA76FA86BC10EA66F3C
:1008600005D032C4F3F00501A68F00D012000501B7
:10087000886B4B0E896F8A6B8B6B8C6B8D6B080E44
:100880008E6F0001E76B1A0EE66E010EE66EEEEC5F
:100890000FF0E552E5521E0EE66E020EE66EEEEC2D
:1008A0000FF0E552E552400EE66E080EE66E050EBC
:1008B000E66EE66A020EE66E95EC10F0106E050E1E
:1008C000E15E1050F3CFEFF0F4CFF0F00001F16BE8
:1008D000F26BE86B1200D9CFE6FFE1CFD9FFFD0E36
:1008E000DBCF06F0FE0EDBCF07F0050E061801E1A8
:1008F000075002E0000E31D0FB0EDBCF10F0FC0EF3
:10090000DBCF11F00001EF51101802E1F051111886
:1009100013E1400EE66E080EE66E050EE66EE66A20
:10092000020EE66E95EC10F0106E050EE15E1050B2
:10093000F3CFEFF0F4CFF0F0FB0EDBCF10F0FC0EB6
:10094000DBCF11F00001F151101802E1F251111842
:1009500002E1E86BED6B010E00D0E552E7CFD9FF65
:100960001200D9CFE6FFE1CFD9FF0001E76BEF51CD
:10097000F01102E1000E08D0EFC0E9FFF0C0EAFF7D
:10098000EF50800B01E0010E000945E1FC0EDBCFCA
:1009900010F0EFC0E9FFF0C0EAFFEE52EF50D88050
:1009A000105408E2EFC0E9FFF0C0EAFFEE52FC0E7F
:1009B000EFCFDBFFE76BFC0EDB50E75D19E2E751A1
:1009C000EA6A080FE96E050EEA22EF50E66EE7517B
:1009D000E76EFD0EDBCFE9FFFE0EDBCFEAFFE7504F
:1009E000E926000EEA22E552E750EF6EE72BE3D747
:1009F000400EE66E080EE66E050EE66EE66A020E24
:100A0000E66E95EC10F0106E050EE15E1050F3CF1F
:100A1000EFF0F4CFF0F00001E75100D0E552E7CF5E
:100A2000D9FF1200D9CFE6FFE1CFD9FFA09A00018C
:100A3000E8510CE1FD0EDBCFE9F0FE0EDBCFEAF072
:100A4000FC0EDBCFEDF0010EEE6FE86FA08AE552F1
:100A5000E7CFD9FF1200D9CFE6FFE1CFD9FF030ED0
:100A6000E126A09A0001E85102E0A08A2FD0DF6AB7
:100A7000FD0EDBCF06F0FE0EDBCF07F0DE5206C028
:100A8000DEFF07C0DDFFDD52DF2ADF50106E116A86
:100A9000FF0E101801E1115001E10BD0010EDBCF68
:100AA000E9FFDB2A020EDBCFEAFF01E3DB2AEF508E
:100AB000EBE1FD0EDBCFE9F0FE0EDBCFEAF0DFCF9E
:100AC000EDF00001010EEE6FE86FA08A030EE15C0D
:100AD00002E2E16AE552E16EE552E7CFD9FF12008A
:100AE000D9CFE6FFE1CFD9FF030EE126A09A00019E
:100AF000E85102E0A08A30D0DF6AFD0EDBCF06F0BD
:100B0000FE0EDBCF07F0DE5206C0DEFF07C0DDFFC2
:100B1000DD52DF2ADF50106E116AFF0E101801E15E
:100B2000115001E10CD0010EDBCFF6FFDB2A020EE3
:100B3000DBCFF7FF01E3DB2A0800F550EAE1FD0E09
:100B4000DBCFE9F0FE0EDBCFEAF0DFCFEDF0000106
:100B5000EE6B010EE86FA08A030EE15C02E2E16A2F
:100B6000E552E16EE552E7CFD9FF1200D9CFE6FF9B
:100B7000E1CFD9FF020EE126A09A0001F151F21156
:100B800002E1000E08D0F1C0E9FFF2C0EAFFEF5029
:100B9000800B01E0010E000902E0A08A87D0030E5D
:100BA000E85D01E1E86BE85102E1A08A7FD0020E26
:100BB000E85D16E1E66A000EE66EE66A010EE66E94
:100BC000020EE66E95EC10F0106E050EE15E105010
:100BD000F3CFF1F0F4CFF2F00001030EE86F65D02F
:100BE000E80563E1400E106E116AED51105C000ED5
:100BF000115803E2400EDF6E02D0EDC0DFFFDF5080
:100C0000ED5DED6F480EEB6F050EEC6F010EDFCF63
:100C1000DBFFEE5117E1010EDB5013E0E9C0F6FFF8
:100C2000EAC0F7FF0800F550EBC0E9FFECC0EAFFAF
:100C3000EF6EEB2B000EEC23E92BEA23010EDB0613
:100C4000EAD715D0010EDB5012E0E9C0E9FFEAC097
:100C5000EAFFEF50EBC0E9FFECC0EAFFEF6EEB2BD1
:100C6000000EEC23E92BEA23010EDB06EBD7ED5156
:100C700008E1400EDF5C03E1020EE86F02D0030ED4
:100C8000E86FDFCFE6FF480EE66E050EE66E010E5A
:100C9000E66E020EE66E95EC10F0106E050EE15E4B
:100CA0001050F3CFF1F0F4CFF2F0A08A020EE15C25
:100CB00002E2E16AE552E16EE552E7CFD9FF1200A8
:100CC000D9CFE6FFE1CFD9FF040EE12601D079D0DC
:100CD000FB0EDBCF10F0FC0EDBCF11F0FD0EDBCFF7
:100CE00012F0FE0EDBCF13F0640E096E0A6A0B6A77
:100CF0000C6A10C004F011C005F012C006F013C059
:100D000007F0DCEC11F000C010F001C011F002C0DF
:100D100012F003C013F010C0DFFF010E11C0DBFFA3
:100D2000020E12C0DBFF030E13C0DBFFD9CFE9FFB9
:100D3000DACFEAFFAF0EEE5E000EEE5A000EEE5A6C
:100D4000000EEE5ADECF05F0DECF06F0DECF07F064
:100D5000DDCF08F0DD52DD520834000E081809E638
:100D6000D8802D0E0554000E0654000E0754000EB8
:100D7000085401E326D0DECF05F0DECF06F0DECF4B
:100D800007F0DDCF08F0DD52DD520834000E081800
:100D900009E6D880000E0554000E0654000E0754D4
:100DA000000E08540EE20000D9CFE9FFDACFEAFFC7
:100DB0002A0EEE5E000EEE5A000EEE5A000EEE5AAD
:100DC000DAD7040EE15C02E2E16AE552E16EE55237
:100DD000E7CFD9FF1200D9CFE6FFE1CFD9FF040E4C
:100DE000E126FD0EDBCF10F0FE0EDBCF11F0126A14
:100DF000136A100E096E270E0A6E0B6A0C6A10C079
:100E000004F011C005F012C006F013C007F0DCECCE
:100E100011F000C010F001C011F002C012F003C0C8
:100E200013F010C0DFFF010E11C0DBFF020E12C075
:100E3000DBFF030E13C0DBFFD9CFE9FFDACFEAFFF8
:100E4000AA0EEE5E000EEE5A000EEE5A000EEE5A9C
:100E5000DECF05F0DECF06F0DECF07F0DDCF08F005
:100E6000DD52DD520834000E081809E6D880C30EA2
:100E70000554000E0654000E0754000E085402E3F9
:100E800027D026D0DECF05F0DECF06F0DECF07F08C
:100E9000DDCF08F0DD52DD520834000E081809E6F7
:100EA000D880000E0554000E0654000E0754000EA4
:100EB00008540EE20000D9CFE9FFDACFEAFF270E8F
:100EC000EE5E000EEE5A000EEE5A000EEE5ADAD723
:100ED000040EE15C02E2E16AE552E16EE552E7CF21
:040EE000D9FF120024
:0C0EE4001201000202000008D8040A00FD
:100EF00000010102000109024300020100C03209A1
:100F00000400000102020100052400100104240273
:100F100002052406000105240100010705810308DC
:100F2000000209040100020A000000070502024055
:100F30000000070582024000000403090434034D49
:100F4000006900630072006F006300680069007050
:100F500000200054006500630068006E006F006CA4
:100F6000006F0067007900200049006E0063002ECA
:100F70000034034300440043002000520053002D7E
:100F800000320033003200200045006D0075006C17
:100F9000006100740069006F006E0020004400656D
:0D0FA000006D006F00F60E390F3D0F710F50
:010FAD000043
:020FAE00036AD4
:100FB000026A016A006A200EE76ED8900436053690
:100FC0000636073600360136023603360950005C15
:100FD0000A5001580B5002580C50035809E30950AD
:100FE000005E0A50015A0B50025A0C50035A042A50
:060FF000E72EE4D7120019
:061000003EEF12F01200A9
:021006001200D6
:0610080016EF00F01200DB
:0610180061EF00F0120080
:02101E00D9CF28
:10102000E6FFE1CFD9FFE652A09A6A6A686A706A61
:10103000020EE66EE66AE66A710EE66E0F0EE66E68
:1010400014EC12F0106E050EE15E1050160E6F6E6D
:101050009F0E6B6E7B0E696EDF6ADF50106E116A39
:101060000C0E105C000E115810E2DF50040DF3CF8F
:10107000E9FFF4CFEAFF000EE926040EEA22EE6A49
:10108000EE6AEE6AEE6ADF2AE8D76D8C6E6A6D98BA
:101090006D9C68A607D068960501A66BAB6BAC6B20
:1010A000AD6BF7D70501010EBF6FC06FC16BC26B8F
:1010B000B36BDF6A030EDF5C26E2EA6ADF34FE0B05
:1010C000EA36E96E9C0EE926050EEA22EE6AED6A22
:1010D000EA6ADF34FE0BEA36E96E960EE926050E63
:1010E000EA22EE6AED6ADF50EA6AB70FE96E050E92
:1010F000EA22EF6ADF50EA6ABA0FE96E050EEA22C9
:10110000EF6ADF2AD7D70501080E9C6F040E9D6F8A
:10111000160E706E0401300E026F040E036F080E7F
:10112000016F840E006F0501906B8F6BE552E552E5
:10113000E7CFD9FF1200D9CFE6FFE1CFD9FFE652C2
:1011400005018F0507E16DBA05D0686A6980698875
:10115000020E8F6F6850040B05E06950040B02E02B
:101160006894CBD86DA202D0A19A94D06850010B9C
:1011700009E06950010B06E052DFA08A0501040E68
:101180008F6F68906850100B05E06950100B02E0FB
:101190009FD8689868AC19D069AC0FD0010EE66E84
:1011A000E66A000EE66EE66A730EE66EE66A95EC97
:1011B00003F0106E060EE15E1050689C0501BD51F3
:1011C00001E0BD07BD5101E172DB6850200B04E076
:1011D0006950200B01E063D86850020B13E069509E
:1011E000020B10E0010EE66EE66A000EE66EE66A9D
:1011F000E6687F0EE66E95EC03F0106E060EE15E7B
:1012000010506A6A040E0501E76E8F19E8AE02D02D
:10121000E73402D0E7508F5D02E2A19A3BD069A685
:1012200038D0DF6A040EDF5C34E268A631D06CCFC0
:10123000B4F50501B451780BE842E842E842B56FD5
:101240006896B4B508D0B551EA6ABA0FE96E050ED2
:10125000EA22EF7007D0B551EA6AB70FE96E050EC2
:10126000EA22EF70B55102E15FD810D0000EE66EB1
:10127000E66AB40EE66E050EE66E720EE66EE66A7D
:1012800095EC03F0106E060EE15E1050DF2ACAD70F
:1012900000D0A19AE552E552E7CFD9FF120070A025
:1012A00015D092C5E9FF93C5EAFFEF5080080DE124
:1012B0009CC5E9FF9DC5EAFFEF50840806E192C591
:1012C000E9FF93C5EAFF8C0EEF6E7090689A1200EA
:1012D000698468986D820501010EB36F000EE66E99
:1012E000E66AE66EE66A750EE66EE66A95EC03F06F
:1012F000106E060EE15E105012000501B36B000E79
:10130000E66EE66AE66EE66A740EE66EE66A95ECEE
:1013100003F0106E060EE15E10506D92699468A4A1
:1013200002D06894FCD71200D9CFE6FFE1CFD9FFF5
:10133000E65205012D0EBD6FFD0EB41553E17E0E74
:10134000B415E8407F0B040DF3CF92F5F4CF93F57D
:10135000000E9227040E932392C594F593C595F53C
:10136000947592C5E9FF93C5EAFFEF503C0BE84244
:10137000E8420D0835E1DF6A080EDF5C23E292C522
:10138000E9FF93C5EAFF020EE926000EEA22EE50BD
:10139000EFCFEAFFE96EEF50E66EDF50EA6A300FFA
:1013A000E96E040EEA22E552E750EF6E92C5E9FFBE
:1013B00093C5EAFF020EE926000EEA22EE2AEF228A
:1013C000DF2ADAD792C5E9FF93C5EAFF020EE926C4
:1013D000000EEA22300EEE6E040EED6E0DD801D036
:1013E0003AD805D0FD0EB415040801E15AD8E552EB
:1013F000E552E7CFD9FF12000501A26BBE6BC16BAE
:10140000C26BB66BA36B9CC5E9FF9DC5EAFFEF9E5F
:101410009C759CC5E9FF9DC5EAFFEF9E9C7594C530
:10142000E9FF95C5EAFFEF9EA66BA76BA86BAB6BB8
:10143000AC6BAD6B90D8000EE66EE66AE66EE66ABF
:10144000030EE66EE66A95EC03F0106E060EE15EA2
:101450001050B0EF0DF0020E0501A35D03E173EC37
:101460000EF01ED0A36BB6511AE194C5E9FF95C5E5
:10147000EAFFEE52080EEF6E94C5E9FF95C5EAFF4C
:10148000020EE926000EEA22300EEE6E040EED6E1C
:1014900094C5E9FF95C5EAFF8C0EEF6E01D0B66BDF
:1014A0001200D9CFE6FFE1CFD9FFE6529CC5E9FF94
:1014B0009DC5EAFFEF50400B01E0010EDF6E050114
:1014C0009C75080E8F5D09E132C46EFF6E5003E01B
:1014D000100E8F6F02D0040E8F6FA30528E19CC5FC
:1014E000E9FF9DC5EAFF020EE926000EEA22380E4A
:1014F000EE6E040EED6E95DB020E0501A25D07E1B6
:101500009CC5E9FF9DC5EAFF840EEF6E0FD0DF504A
:1015100007E19CC5E9FF9DC5EAFFC80EEF6E06D046
:101520009CC5E9FF9DC5EAFF880EEF6E0FD0ABAFFB
:101530000CD0AE51AF1107E005D0AFC5FAFF0501E1
:10154000AE51F96EFADF0501AB9FA36BE552E55290
:10155000E7CFD9FF120004013051600BE842E842A6
:10156000E842E842E842000901E059D031510C0A52
:1015700055E00B0A44E00C0A36E0010A27E00B0AAA
:1015800023E0020A21E0030A1DE0080A11E0010A33
:101590000CE00F0A08E0030A01E040D00501A68F25
:1015A000080E8F6F3CD014DA3AD013EC0FF037D01E
:1015B0000501900EA46F050EA56FA681010EA76F01
:1015C000A68F2DD065DA2BD02BD829D03451050128
:1015D000A46FA56B910EA427050EA523A681010E6D
:1015E000A76FA68F1CD00501A68F04013451EA6AAB
:1015F000910FE96E050EEA2232C4EFFF10D0000E03
:10160000E66EE66AE66EE66A020EE66EE66A95EC5D
:1016100003F0106E060EE15E105001D000D01200F3
:10162000D9CFE6FFE1CFD9FF050EE126040132054F
:1016300010E130511F0B00090CE10501A68F030ECC
:101640000401315D04E10501010EB26F02D0050114
:10165000B26B0401325101E020D130511F0B02085E
:1016600001E01BD134510F0B000901E116D13451B7
:101670000F0B020801E211D1200E05018F5D01E080
:101680000CD1A68F040134BF1AD034510F0BE96E70
:10169000EA6AD890E936EA36960EE926050EEA227D
:1016A000EECFDEFFEDCFDDFF34510F0BEA6ABA0F4C
:1016B000E96E050EEA22020EEFCFDBFF19D034519E
:1016C0000F0BE96EEA6AD890E936EA369C0EE926F5
:1016D000050EEA22EECFDEFFEDCFDDFF34510F0B1A
:1016E000EA6AB70FE96E050EEA22020EEFCFDBFFC2
:1016F000D950020FE96EDACFEAFFEF50010B03E198
:10170000000EDF9401D0DF8434BF10D034510F0BB2
:10171000E96EEA6AD890E936EA36960EE926050EB1
:10172000EA22DECFEEFFDDCFEDFF0FD034510F0BFD
:10173000E96EEA6AD890E936EA369C0EE926050E8B
:10174000EA22DECFEEFFDDCFEDFF030E315D23E1B8
:10175000DECFE9FFDDCFEAFFEF50800B13E034BFAF
:1017600009D034510F0BEA6ABA0FE96E050EEA226E
:10177000EF8208D034510F0BEA6AB70FE96E050EFD
:10178000EA22EF82840E106EDECFE9FFDDCFEAFFA2
:101790001050EF1282D0DF74DECFE9FFDDCFEAFF19
:1017A000EF50800B1BE0DECFE9FFDDCFEAFFEF9EBD
:1017B000DECFE9FFDDCFEAFFEF8C020EE66EE66AD0
:1017C000DECFE6FFDDCFE6FF050EE66EE66A95ECBE
:1017D00003F0106E060EE15E105005D0DECFE9FF7B
:1017E000DDCFEAFFEF8CDF74D950020FE96EDACF5C
:1017F000EAFFEF50020B07E1DECFE9FFDDCFEAFFA2
:10180000EF50800B2DE0040134BF09D034510F0B91
:10181000EA6ABA0FE96E050EEA22EF9208D0345157
:101820000F0BEA6AB70FE96E050EEA22EF923B0E44
:10183000106EDECFE9FFDDCFEAFF1050EF16020E8B
:10184000E66EE66ADECFE6FFDDCFE6FF050EE66E6A
:10185000E66A95EC03F0106E060EE15E105008D0BB
:101860003B0E106EDECFE9FFDDCFEAFF1050EF1622
:10187000040134510F0B116A700F106E0F0E1122FC
:10188000030E10C0DBFF040E11C0DBFF030EDBCF25
:10189000E9FF040EDBCFEAFFEF90050EE15C02E208
:1018A000E16AE552E16EE552E7CFD9FF120005018A
:1018B000BF514DE1010EBF6FC05149E1010EC06F34
:1018C000020EA35D0DE19CC5E9FF9DC5EAFFEE5246
:1018D000EF6A9CC5E9FF9DC5EAFFC80EEF6E37D0E1
:1018E000A30535E1B66B92C5E9FF93C5EAFFEE5259
:1018F000080EEF6E92C5E9FF93C5EAFF020EE926D6
:10190000000EEA22300EEE6E040EED6E92C5E9FF77
:1019100093C5EAFF840EEF6E010EB66F94C5E9FF22
:1019200095C5EAFFEE52080EEF6E94C5E9FF95C526
:10193000EAFF020EE926000EEA22300EEE6E040ED9
:10194000ED6E94C5E9FF95C5EAFF800EEF6E1200BB
:101950000501C16BC26B020EA35D1AE194C5E9FFDC
:1019600095C5EAFFEE52080EEF6E94C5E9FF95C5E6
:10197000EAFF020EE926000EEA22380EEE6E040E91
:10198000ED6E94C5E9FF95C5EAFFC80EEF6E1FD056
:10199000A7510401365D0501A8510401375904E23D
:1019A00036C4A7F537C4A8F53CD99CC5E9FF9DC549
:1019B000EAFF020EE926000EEA22380EEE6E040E51
:1019C000ED6E9CC5E9FF9DC5EAFFC80EEF6E1200E3
:1019D000800E0401305D5BE10501C00EA66F0401BD
:1019E0003351030A34E0010A0EE0030A03E0050163
:1019F000A66B4DD00501E40EA46F0E0EA56F120E5E
:101A0000A76FA86B44D03251F66EF76AD890F636BD
:101A1000F736A50EF6260F0EF7220900F5CFA4F52E
:101A20000A00F5CFA5F5020E0501F76AA425F66EAA
:101A3000A551F7220800F5CFA7F5030EF76AA425F4
:101A4000F66EA551F7220800F5CFA8F520D0030EB9
:101A5000325D1AE23251F66EF76AD890F636F736F2
:101A6000A70EF6260F0EF7220900F5CFA4F50A00FF
:101A7000F5CFA5F5A4C5F6FFA5C5F7FF0800F550FD
:101A80000501A76FA86B02D00501A66B00D012005C
:101A9000D9CFE6FFE1CFD9FF020EE1260401386B72
:101AA000396B30511F0B020A12E0030A0DE0010AE4
:101AB00001E042D00501A68F040138810501B2057D
:101AC00002E10401388338D00501A68F35D0050125
:101AD000A68F040134BF10D034510F0BE96EEA6AAF
:101AE000D890E936EA36960EE926050EEA22EECFC0
:101AF000DEFFEDCFDDFF0FD034510F0BE96EEA6A48
:101B0000D890E936EA369C0EE926050EEA22EECF99
:101B1000DEFFEDCFDDFFDECFE9FFDDCFEAFFEF50E7
:101B2000800B09E0DECFE9FFDDCFEAFFEF50040BC9
:101B300002E0010E386F00D00501A6AF07D0380EC5
:101B4000A46F040EA56FA681020EA76F020EE15CC2
:101B500002E2E16AE552E16EE552E7CFD9FF1200F9
:101B60006D980501A6BF2BD0ABAF09D0020EA36FB5
:101B7000C25101E1EDDE0501C06BBF6B1FD094C502
:101B8000E9FF95C5EAFFEE52080EEF6E94C5E9FF36
:101B900095C5EAFF020EE926000EEA22300EEE6E2F
:101BA000040EED6E94C5E9FF95C5EAFF8C0EEF6E4D
:101BB0009CC5E9FF9DC5EAFF840EEF6E31D004019C
:101BC00030AF0DD00501010EA36FC15101E1C0DEA0
:101BD0000501C06BBF6BBE5101E169DE21D005017B
:101BE000020EA36F94C5E9FF95C5EAFFEE52080EF9
:101BF000EF6E94C5E9FF95C5EAFF020EE926000ED7
:101C0000EA22300EEE6E040EED6E94C5E9FF95C526
:101C1000EAFF840EEF6EC06BBF6BBE5101E147DE81
:101C20001200D9CFE6FFE1CFD9FFE652080EDF6EF2
:101C30000501A75D000EA8590BE2A7C5DFFFA25161
:101C400003E1010EA26F04D0A20502E1020EA26F11
:101C5000DF50106E116A1050A75DA76F1150A85980
:101C6000A86F9CC5E9FF9DC5EAFFEE52DFCFEFFFED
:101C7000380EB06F040EB16FA6B119D0DF5016E068
:101C8000A4C5F6FFA5C5F7FFA42B000EA5230800E9
:101C9000F550E66EB0C5E9FFB1C5EAFFB02B000E06
:101CA000B123E552E750EF6EDF06E8D717D0DF50DB
:101CB00015E0A4C5E9FFA5C5EAFFA42B000EA523E6
:101CC000EF50E66EB0C5E9FFB1C5EAFFB02B000EDC
:101CD000B123E552E750EF6EDF06E9D7E552E55252
:101CE000E7CFD9FF1200D9CFE6FFE1CFD9FF020E2F
:101CF000E12692C5E9FF93C5EAFFEE52EFCFDFFF81
:101D0000DFCF10F010500501AC5D000EAD5902E2BE
:101D1000ACC5DFFFDF50106E116A1050AC5DAC6FC8
:101D20001150AD59AD6F010EDB6ADF50F36E010E3D
:101D3000DBCFF4FFF350F45C16E2010EDB50EA6AED
:101D4000380FE96E040EEA22EF50E66EA9C5E9FFEE
:101D5000AAC5EAFFA92B000EAA23E552E750EF6EB1
:101D6000010EDB2AE2D7000ED880AC55000EAD552F
:101D700028E294C5E9FF95C5EAFFEE52080EEF6E22
:101D800094C5E9FF95C5EAFF020EE926000EEA2296
:101D9000380EEE6E040EED6E92C5E9FF93C5EAFFB4
:101DA000EF50400B07E194C5E9FF95C5EAFFC80E67
:101DB000EF6E06D094C5E9FF95C5EAFF880EEF6E79
:101DC00028D094C5E9FF95C5EAFFEE52080EEF6EE4
:101DD00094C5E9FF95C5EAFF020EE926000EEA2246
:101DE000300EEE6E040EED6E94C5E9FF95C5EAFF68
:101DF000840EEF6EAE51AF1107E005D0AFC5FAFF0C
:101E00000501AE51F96EFADF0501AB9FBE5101E14C
:101E10004EDD020EE15C02E2E16AE552E16EE5525E
:101E2000E7CFD9FF1200D9CFE6FFE1CFD9FFE652C5
:101E30000501A68F020EE66EE66AE66A710EE66E90
:101E40000F0EE66E14EC12F0106E050EE15E1050EF
:101E5000DF6ADF50106E116A0C0E105C000E115814
:101E600010E2DF50040DF3CFE9FFF4CFEAFF000EDC
:101E7000E926040EEA22EE6AEE6AEE6AEE6ADF2ACC
:101E8000E8D76D8CDF6A030EDF5C10E2DF50EA6A90
:101E9000B70FE96E050EEA22EF6ADF50EA6ABA0F61
:101EA000E96E050EEA22EF6ADF2AEDD7010EE66E33
:101EB000E66AE66A910EE66E050EE66E14EC12F026
:101EC000106E050EE15E10506D9C0501080E9C6FB2
:101ED000040E9D6F000E926F040E936F92C594F5E1
:101EE00093C595F532C490F5905103E1100E8F6FB4
:101EF00013D0010EE66EE66A900EE66E050EE66EF3
:101F0000010EE66EE66A95EC03F0106E060EE15ED9
:101F100010500501200E8F6FE552E552E7CFD9FF33
:101F20001200D9CFE6FFE1CFD9FF020EE126000E65
:101F3000DE6E040EDD6EFD0EDB50E824126EFE0E2A
:101F4000DB50040DF3501224040DF3CF10F0F4CF46
:101F500011F0D9CFE9FFDACFEAFF1050EE26115089
:101F6000ED22DECFE9FFDDCFEAFFEF9EFD0EDB5075
:101F70000FE1FE0EEA6ADB34FE0BEA36E96E960EDE
:101F8000E926050EEA22DECFEEFFDDCFEDFF0ED013
:101F9000FE0EEA6ADB34FE0BEA36E96E9C0EE92699
:101FA000050EEA22DECFEEFFDDCFEDFFDECFE9FF4B
:101FB000DDCFEAFFEF9CDECFE9FFDDCFEAFF040EC5
:101FC000E926000EEA22EF8C020EE15C02E2E16AF1
:101FD000E552E16EE552E7CFD9FF1200D9CFE6FF17
:101FE000E1CFD9FF020EE126FD0EDBA407D0E66AA1
:101FF000FE0EDBCFE6FF95DFE552E552FD0EDBA2DC
:1020000008D0010EE66EFE0EDBCFE6FF8ADFE5525A
:10201000E552FE0EDB50116A700F106E0F0E11228A
:1020200010C0DEFF11C0DDFFDECFE9FFDDCFEAFF2C
:10203000FD0EDBCFEFFF020EE15C02E2E16AE5524A
:10204000E16EE552E7CFD9FF1200D9CFE6FFE1CF2D
:10205000D9FF020EE126FE0EDB5020E194C5E9FF18
:1020600095C5EAFFEE52080EEF6E94C5E9FF95C5DF
:10207000EAFF020EE926000EEA22300EEE6E040E92
:10208000ED6E94C5E9FF95C5EAFF8C0EEF6E9CC519
:10209000E9FF9DC5EAFF840EEF6E3DD0FD0EDB50DB
:1020A000E824126EFE0EDB50040DF3501224040DD2
:1020B000F3CF10F0F4CF11F0000E1026040E112211
:1020C00010C0DEFF11C0DDFF840E106EDECFE9FF11
:1020D000DDCFEAFF1050EF12FD0EDB50E824126E48
:1020E000FE0EDB50040DF3501224010F040DF3CF4C
:1020F00010F0F4CF11F0000E1026040E112210C0C3
:10210000DEFF11C0DDFF840E106EDECFE9FFDDCFF4
:10211000EAFF1050EF12020EE15C02E2E16AE552C2
:10212000E16EE552E7CFD9FF1200D9CFE6FFE1CF4C
:10213000D9FF020EE126FD0EDB500FE0FE0EEA6A2B
:10214000DB34FE0BEA36E96E9C0EE926050EEA2228
:10215000EECFDEFFEDCFDDFF0ED0FE0EEA6ADB3400
:10216000FE0BEA36E96E960EE926050EEA22EECF60
:10217000DEFFEDCFDDFFD9CFE9FFDACFEAFFEE508A
:10218000ED1003E1F36AF46A49D0DECFE9FFDDCF59
:10219000EAFF020EE926000EEA22FB0EDBCFEEFF7D
:1021A000FC0EDBCFEDFFDECFE9FFDDCFEAFFEE5225
:1021B000FA0EDBCFEFFF400E106EDECFE9FFDDCF72
:1021C000EAFF1050EF16880E106EDECFE9FFDDCF6C
:1021D000EAFF1050EF12FD0EDB500CE0FE0EEA6A33
:1021E000DB34FE0BEA36E96E9C0EE926050EEA2288
:1021F000EF740BD0FE0EEA6ADB34FE0BEA36E96EB2
:10220000960EE926050EEA22EF74DECF10F0DDCF40
:1022100011F010C0F3FF11C0F4FF00D0020EE15C1A
:1022200002E2E16AE552E16EE552E7CFD9FF120022
:10223000D9CFE6FFE1CFD9FF6DA84ED0FE0EEA6AF6
:10224000DB34FE0BEA36E96E9C0EE926050EEA2227
:10225000EE50EFCFEAFFE96E400EEE16EE6AEE6A40
:10226000EE6AFE0EEA6ADB34FE0BEA36E96E9C0E7D
:10227000E926050EEA22EE50EFCFEAFFE96EEE7C8A
:10228000FE0EEA6ADB34FE0BEA36E96E9C0EE926A6
:10229000050EEA22EF74400E106EFE0EEA6ADB3481
:1022A000FE0BEA36E96E9C0EE926050EEA22EE5098
:1022B000EFCFEAFFE96E1050EF16FE0EEA6ADB344C
:1022C000FE0BEA36E96E9C0EE926050EEA22EE5078
:1022D000EFCFEAFFE96EEF7CE552E7CFD9FF1200BE
:1022E0006D6A696A05018F6B00D0120005018F517C
:1022F00013E16D6A696A160E6F6E9F0E6B6E7B0E30
:10230000696ED08EA28AA08AF28E6DB602D06D86DA
:0A231000FCD70501010E8F6F1200CB
:06231A001E0EF66E000E1F
:10232000F76E000EF86E05010900F550C86F090040
:10233000F550C96F03E1C86701D03DD00900F550E1
:10234000C36F0900F550C46F0900F550C56F09004F
:102350000900F550E96E0900F550EA6E0900090020
:102360000900F550C66F0900F550C76F0900090054
:10237000F6CFCAF5F7CFCBF5F8CFCCF5C3C5F6FF4E
:10238000C4C5F7FFC5C5F8FF0501C65302E1C75331
:1023900007E00900F550EE6EC607F8E2C707F9D767
:1023A000CAC5F6FFCBC5F7FFCCC5F8FF0501C807C6
:0823B000000EC95BBFD712004B
:0823B80004500902F3CF00F00C
:1023C000F4CF01F00A02F3500126000EF420026E51
:1023D00004500B02F3500226000EF420036E04504A
:1023E0000C02F350032605500902F3500126F45065
:1023F0000222000E032205500A02F3500226F45076
:10240000032205500B02F350032606500902F35035
:102410000226F450032206500A02F3500326075006
:082420000902F350032612002B
:08242800FE0EE3CFE9FFFF0EF9
:10243000E3CFEAFFE9CFF3FFEACFF4FFFB0EE3506F
:1024400003E1FC0EE35009E0FB0EE30602E2FC0EA2
:0C245000E306FD0EE350EE6EF1D7120023
:04245C00000EF36E0D
:1024600000EE00F0080E01D81200EA6002D0EE6A19
:0C247000FCD7F350E9601200EE6AFCD7C4
:04247C0013EE00F06B
:1024800023EE00F0F86A0F9C8DEC11F003EC08F0DD
:08249000FEEC01F0FBD7120085
:020000040030CA
:0100000024DB
:010001000EF0
:010002003FBE
:010003001EDE
:01000500807A
:010006008178
:010008000FE8
:01000900C036
:01000A000FE6
:01000B00E014
:01000C000FE4
:01000D0040B2
:00000001FF
