:020000040000FA
:06000000E7EF05F012001D
:0600080004EF08F01200F5
:02000E000000F0
:0100100000EF
:060018000CEF08F01200DD
:02001E000100DF
:0C0020000E000000CD05000003000000F1
:04002C00040130514A
:100030001F0B010801E04CD03051600BE842E84250
:10004000E842E842E842010801E042D0345103E0CE
:10005000340501E03DD03151220A35E0030A28E0A1
:10006000010A17E0210A0EE0010A01E031D0050182
:10007000F80EA46F000EA56F080EA76FA86BA681DF
:10008000A68F26D00501F80EA46F000EA56FA68FCF
:100090001FD036C4ACF537C4ADF50501000EA96F0D
:1000A000050EAA6F860EAE6F060EAF6FAB8F10D027
:1000B0000501880EA46F050EA56F070EA76FA86B2C
:1000C000C10EA66F05D032C4F3F00501A68F00D093
:1000D00012000501886B4B0E896F8A6B8B6B8C6BE2
:1000E0008D6B080E8E6F0001E76B1A0EE66E010E27
:1000F000E66EEEEC0FF0E552E5521E0EE66E020ED5
:10010000E66EEEEC0FF0E552E552400EE66E080E9C
:10011000E66E050EE66EE66A020EE66E95EC10F0EF
:10012000106E050EE15E1050F3CFEFF0F4CFF0F05B
:100130000001F16BF26BE86B1200D9CFE6FFE1CF63
:10014000D9FFFD0EDBCF06F0FE0EDBCF07F0050E6C
:10015000061801E1075002E0000E31D0FB0EDBCFA4
:1001600010F0FC0EDBCF11F00001EF51101802E18E
:10017000F051111813E1400EE66E080EE66E050E02
:10018000E66EE66A020EE66E95EC10F0106E050E55
:10019000E15E1050F3CFEFF0F4CFF0F0FB0EDBCFC9
:1001A00010F0FC0EDBCF11F00001F151101802E14C
:1001B000F251111802E1E86BED6B010E00D0E5522F
:1001C000E7CFD9FF1200D9CFE6FFE1CFD9FF000179
:1001D000E76BEF51F01102E1000E08D0EFC0E9FF2C
:1001E000F0C0EAFFEF50800B01E0010E000945E18D
:1001F000FC0EDBCF10F0EFC0E9FFF0C0EAFFEE52DB
:10020000EF50D880105408E2EFC0E9FFF0C0EAFFD9
:10021000EE52FC0EEFCFDBFFE76BFC0EDB50E75D31
:1002200019E2E751EA6A080FE96E050EEA22EF507B
:10023000E66EE751E76EFD0EDBCFE9FFFE0EDBCF8A
:10024000EAFFE750E926000EEA22E552E750EF6E9A
:10025000E72BE3D7400EE66E080EE66E050EE66E5F
:10026000E66A020EE66E95EC10F0106E050EE15E89
:100270001050F3CFEFF0F4CFF0F00001E75100D0D1
:10028000E552E7CFD9FF1200D9CFE6FFE1CFD9FF82
:10029000A09A0001E8510CE1FD0EDBCFE9F0FE0E63
:1002A000DBCFEAF0FC0EDBCFEDF0010EEE6FE86F76
:1002B000A08AE552E7CFD9FF1200D9CFE6FFE1CF00
:1002C000D9FF030EE126A09A0001E85102E0A08ABE
:1002D0002FD0DF6AFD0EDBCF06F0FE0EDBCF07F07E
:1002E000DE5206C0DEFF07C0DDFFDD52DF2ADF5031
:1002F000106E116AFF0E101801E1115001E10BD0D0
:10030000010EDBCFE9FFDB2A020EDBCFEAFF01E3C0
:10031000DB2AEF50EBE1FD0EDBCFE9F0FE0EDBCF89
:10032000EAF0DFCFEDF00001010EEE6FE86FA08A7A
:10033000030EE15C02E2E16AE552E16EE552E7CFCD
:10034000D9FF1200D9CFE6FFE1CFD9FF030EE12696
:10035000A09A0001E85102E0A08A30D0DF6AFD0EC9
:10036000DBCF06F0FE0EDBCF07F0DE5206C0DEFF6D
:1003700007C0DDFFDD52DF2ADF50106E116AFF0E6D
:10038000101801E1115001E10CD0010EDBCFF6FF96
:10039000DB2A020EDBCFF7FF01E3DB2A0800F55072
:1003A000EAE1FD0EDBCFE9F0FE0EDBCFEAF0DFCFB6
:1003B000EDF00001EE6B010EE86FA08A030EE15C28
:1003C00002E2E16AE552E16EE552E7CFD9FF1200A1
:1003D000D9CFE6FFE1CFD9FF020EE126A09A0001B6
:1003E000F151F21102E1000E08D0F1C0E9FFF2C0B4
:1003F000EAFFEF50800B01E0010E000902E0A08A45
:1004000087D0030EE85D01E1E86BE85102E1A08AC4
:100410007FD0020EE85D16E1E66A000EE66EE66A3F
:10042000010EE66E020EE66E95EC10F0106E050EF3
:10043000E15E1050F3CFF1F0F4CFF2F00001030EC3
:10044000E86F65D0E80563E1400E106E116AED516A
:10045000105C000E115803E2400EDF6E02D0EDC0BA
:10046000DFFFDF50ED5DED6F480EEB6F050EEC6FBB
:10047000010EDFCFDBFFEE5117E1010EDB5013E081
:10048000E9C0F6FFEAC0F7FF0800F550EBC0E9FF4E
:10049000ECC0EAFFEF6EEB2B000EEC23E92BEA2316
:1004A000010EDB06EAD715D0010EDB5012E0E9C0E1
:1004B000E9FFEAC0EAFFEF50EBC0E9FFECC0EAFF5A
:1004C000EF6EEB2B000EEC23E92BEA23010EDB068B
:1004D000EBD7ED5108E1400EDF5C03E1020EE86F5F
:1004E00002D0030EE86FDFCFE6FF480EE66E050E82
:1004F000E66E010EE66E020EE66E95EC10F0106EE2
:10050000050EE15E1050F3CFF1F0F4CFF2F0A08AC7
:10051000020EE15C02E2E16AE552E16EE552E7CFEC
:04052000D9FF1200ED
:0C052400DACFE4FFE2CFDAFFE9CFE4FF1A
:10053000EACFE4FFF6CFE4FFF7CFE4FFF5CFE4FF27
:10054000F3CFE4FFF4CFE4FFFACFE4FF00EE00F0D6
:10055000100EE80403E3EECFE4FFFBD700EE10F04B
:10056000080EE80403E3EECFE4FFFBD7E6529BEC72
:1005700008F0E55200EE17F0080EE80403E3E5CFBB
:10058000EDFFFBD700EE0FF0100EE80403E3E5CF1C
:10059000EDFFFBD7E5CFFAFFE5CFF4FFE5CFF3FFA3
:1005A000E5CFF5FFE5CFF7FFE5CFF6FFE5CFEAFFB3
:1005B000E5CFE9FFE5CFDAFF1100D8CFE4FFE0CFC8
:1005C000E4FFE46EDACFE4FFE2CFDAFFE652E55271
:1005D000E5CFDAFFE550E5CFE0FFE5CFD8FF10002B
:1005E00005D876EC11F0BDD8FED712000F0EC1125F
:1005F00002D80FEF08F0D9CFE6FFE1CFD9FFE652DE
:100600001FD8DF6ADF50106E116A400E105C000EBA
:10061000115809E2DF50EA6A600FE96E000EEA2223
:10062000EF6ADF2AEFD70001E06BE16BE36BE46B6D
:10063000F00E8C169516E552E552E7CFD9FF120061
:10064000D9CFE6FFE1CFD9FFE652938A939E240EDD
:10065000AC6E900EAB6E710EAF6E020EB06E080EE9
:10066000B86EAE50DF6EE552E552E7CFD9FF12000B
:10067000D9CFE6FFE1CFD9FFFE0EDB50AD6EE552DC
:10068000E7CFD9FF1200D9CFE6FFE1CFD9FF040EA3
:10069000E126D880000E05010055C20E0155010E5D
:1006A0000255000E035501E23DD000C588F501C595
:1006B00089F502C58AF503C58BF5146A1B0E156E04
:1006C000B70E166E176A14C004F015C005F016C0F8
:1006D00006F017C007F088C509F089C50AF08AC579
:1006E0000BF08BC50CF099EC05F004C010F005C0C0
:1006F00011F006C012F007C013F01006000E115AD8
:10070000125A135A10C0DFFF010E11C0DBFF020E98
:1007100012C0DBFF030E13C0DBFFDF50AF6E010E14
:10072000DB50B06E040EE15C02E2E16AE552E16E7C
:10073000E552E7CFD9FF1200D9CFE6FFE1CFD9FFCD
:10074000E652ABA205D0AB98AE50DF6EAB8802D0BC
:10075000AE50DF6EDF5000D0E552E552E7CFD9FF53
:10076000120071D8200E0501E76E8F19E8AE02D095
:10077000E73402D0E7508F5D03E36D50020B01E0D8
:1007800061D00501CD5115E1400EE66EA00EE66E7A
:10079000000EE66EE3EC00F0E552E552E552000192
:1007A000E16FE151000805E20501010ECD6F000186
:1007B000E26B0501CD5115E0AC50020B12E00001D7
:1007C000E251EA6AA00FE96E000EEA22EF50E66EEF
:1007D0004FDFE5520001E22BE151E25D02E105014C
:1007E000CD6B9E50200B18E03F0E0001E05D14E23F
:1007F000A3DFE66E0001E051EA6A600FE96E000EC9
:10080000EA22E552E750EF6EE02BE051EA6A600F12
:10081000E96E000EEA22EF6A0001E85111E10001E1
:10082000E05100080DE2E0C0E6FF600EE66E000E4B
:10083000E66E44EC01F0E552E552E5520001E06B52
:10084000E8EC01F012000501CE51CF1104E1100EC9
:10085000CE6F270ECF6FCE07000ECF5B6DA20AD0F2
:10086000CE51CF1106E18C708CA002D08C8201D0C9
:100870008C922ED005018F5103E18C908C9228D060
:100880008F0503E18C808C8223D0020E8F5D03E103
:100890008C808C921DD0040E8F5D03E18C908C8235
:1008A00017D0100E8F5D07E10501CE51CF1102E187
:1008B0008C708C920DD0200E8F5D0AE10501CE5117
:1008C000CF1106E18C708CA002D08C9201D08C826A
:1008D0001200120012001200120016EF00F01200B7
:1008E00069EF00F00501B20520E10501B3051DE146
:1008F000A09AF0DF6D920501B36B0001100EE56F59
:100900000E0EE66FE507000EE65BE551E611FAE133
:100910006D84080EE56F070EE66FE507000EE65BD7
:10092000E551E611FAE16D94A08A1200D9CFE6FFF5
:10093000E1CFD9FFFD0EDBCF06F0FE0EDBCF07F0D7
:10094000050E061801E1075039E0E868061802E1D3
:100950007F0E071831E0030E061801E107502AE068
:10096000020E061801E1075023E0010E061801E10E
:1009700007501CE0740E061801E1075015E0750ED3
:10098000061801E107500EE0730E061801E107504A
:1009900007E0720E061801E1075001E010D00FD0F9
:1009A0009ADF0DD096DF0BD095DF09D099DF07D005
:1009B00096DF05D092DF03D08FDF01D000D0010E8B
:0A09C00000D0E552E7CFD9FF120086
:0609CA0012010002020010
:1009D0000008D8040A0000010102000109024300D6
:1009E000020100C0320904000001020201000524D6
:1009F0000010010424020205240600010524010060
:100A0000010705810308000209040100020A000031
:100A100000070502024000000705820240000004B2
:100A200003090434034D006900630072006F006322
:100A300000680069007000200054006500630068D1
:100A4000006E006F006C006F0067007900200049A5
:100A5000006E0063002E0034034300440043002076
:100A600000520053002D00320033003200200045B8
:100A7000006D0075006C006100740069006F006E0D
:100A8000002000440065006D006F00DC091F0A2390
:030A90000A570AF8
:0C0A94001E0EF66E000EF76E000EF86EDF
:100AA00005010900F550C86F0900F550C96F03E151
:100AB000C86701D03DD00900F550C36F0900F5505B
:100AC000C46F0900F550C56F09000900F550E96EC3
:100AD0000900F550EA6E090009000900F550C66FDB
:100AE0000900F550C76F09000900F6CFCAF5F7CF26
:100AF000CBF5F8CFCCF5C3C5F6FFC4C5F7FFC5C528
:100B0000F8FF0501C65302E1C75307E00900F5509D
:100B1000EE6EC607F8E2C707F9D7CAC5F6FFCBC520
:100B2000F7FFCCC5F8FF0501C807000EC95BBFD7AA
:020B30001200B1
:0E0B3200036A026A016A006A200EE76ED8901C
:100B400004360536063607360036013602360336D9
:100B50000950005C0A5001580B5002580C500358C1
:100B600009E30950005E0A50015A0B50025A0C501A
:0A0B7000035A042AE72EE4D712000E
:060B7A00FE0EE3CFE9FFCF
:100B8000FF0EE3CFEAFFE9CFF3FFEACFF4FFFB0E5E
:100B9000E35003E1FC0EE35009E0FB0EE30602E242
:0E0BA000FC0EE306FD0EE350EE6EF1D71200E0
:020BAE00000E37
:100BB000F36E00EE00F0080E01D81200EA6002D0D9
:0E0BC000EE6AFCD7F350E9601200EE6AFCD733
:020BCE0013EE24
:100BD00000F023EE00F0F86A0F9C4AEC05F003ECFD
:0A0BE00008F0F0EC02F0FBD7120061
:06100000E7EF05F012000D
:021006001200D6
:0610080092EF02F012005D
:06101800DDEF02F0120002
:02101E00D9CF28
:10102000E6FFE1CFD9FFE652A09A6A6A686A706A61
:10103000020EE66EE66AE66A710EE66E0F0EE66E68
:10104000BDEC05F0106E050EE15E1050160E6F6ED1
:101050009F0E6B6E7B0E696EDF6ADF50106E116A39
:101060000C0E105C000E115810E2DF50040DF3CF8F
:10107000E9FFF4CFEAFF000EE926040EEA22EE6A49
:10108000EE6AEE6AEE6ADF2AE8D76D8C6E6A6D98BA
:101090006D9C68A607D068960501A66BAB6BAC6B20
:1010A000AD6BF7D70501010EBF6FC06FC16BC26B8F
:1010B000B36BDF6A030EDF5C26E2EA6ADF34FE0B05
:1010C000EA36E96E9C0EE926050EEA22EE6AED6A22
:1010D000EA6ADF34FE0BEA36E96E960EE926050E63
:1010E000EA22EE6AED6ADF50EA6AB70FE96E050E92
:1010F000EA22EF6ADF50EA6ABA0FE96E050EEA22C9
:10110000EF6ADF2AD7D70501080E9C6F040E9D6F8A
:10111000160E706E0401300E026F040E036F080E7F
:10112000016F840E006F0501906B8F6BE552E552E5
:10113000E7CFD9FF1200D9CFE6FFE1CFD9FFE652C2
:1011400005018F0507E16DBA05D0686A6980698875
:10115000020E8F6F6850040B05E06950040B02E02B
:101160006894CBD86DA202D0A19A94D06850010B9C
:1011700009E06950010B06E052DFA08A0501040E68
:101180008F6F68906850100B05E06950100B02E0FB
:101190009FD8689868AC19D069AC0FD0010EE66E84
:1011A000E66A000EE66EE66A730EE66EE66A96EC96
:1011B00004F0106E060EE15E1050689C0501BD51F2
:1011C00001E0BD07BD5101E172DB6850200B04E076
:1011D0006950200B01E063D86850020B13E069509E
:1011E000020B10E0010EE66EE66A000EE66EE66A9D
:1011F000E6687F0EE66E96EC04F0106E060EE15E79
:1012000010506A6A040E0501E76E8F19E8AE02D02D
:10121000E73402D0E7508F5D02E2A19A3BD069A685
:1012200038D0DF6A040EDF5C34E268A631D06CCFC0
:10123000B4F50501B451780BE842E842E842B56FD5
:101240006896B4B508D0B551EA6ABA0FE96E050ED2
:10125000EA22EF7007D0B551EA6AB70FE96E050EC2
:10126000EA22EF70B55102E15FD810D0000EE66EB1
:10127000E66AB40EE66E050EE66E720EE66EE66A7D
:1012800096EC04F0106E060EE15E1050DF2ACAD70D
:1012900000D0A19AE552E552E7CFD9FF120070A025
:1012A00015D092C5E9FF93C5EAFFEF5080080DE124
:1012B0009CC5E9FF9DC5EAFFEF50840806E192C591
:1012C000E9FF93C5EAFF8C0EEF6E7090689A1200EA
:1012D000698468986D820501010EB36F000EE66E99
:1012E000E66AE66EE66A750EE66EE66A96EC04F06D
:1012F000106E060EE15E105012000501B36B000E79
:10130000E66EE66AE66EE66A740EE66EE66A96ECED
:1013100004F0106E060EE15E10506D92699468A4A0
:1013200002D06894FCD71200D9CFE6FFE1CFD9FFF5
:10133000E65205012D0EBD6FFD0EB41553E17E0E74
:10134000B415E8407F0B040DF3CF92F5F4CF93F57D
:10135000000E9227040E932392C594F593C595F53C
:10136000947592C5E9FF93C5EAFFEF503C0BE84244
:10137000E8420D0835E1DF6A080EDF5C23E292C522
:10138000E9FF93C5EAFF020EE926000EEA22EE50BD
:10139000EFCFEAFFE96EEF50E66EDF50EA6A300FFA
:1013A000E96E040EEA22E552E750EF6E92C5E9FFBE
:1013B00093C5EAFF020EE926000EEA22EE2AEF228A
:1013C000DF2ADAD792C5E9FF93C5EAFF020EE926C4
:1013D000000EEA22300EEE6E040EED6E0DD801D036
:1013E0003AD805D0FD0EB415040801E15AD8E552EB
:1013F000E552E7CFD9FF12000501A26BBE6BC16BAE
:10140000C26BB66BA36B9CC5E9FF9DC5EAFFEF9E5F
:101410009C759CC5E9FF9DC5EAFFEF9E9C7594C530
:10142000E9FF95C5EAFFEF9EA66BA76BA86BAB6BB8
:10143000AC6BAD6B90D8000EE66EE66AE66EE66ABF
:10144000030EE66EE66A96EC04F0106E060EE15EA0
:101450001050B0EF0DF0020E0501A35D03E173EC37
:101460000EF01ED0A36BB6511AE194C5E9FF95C5E5
:10147000EAFFEE52080EEF6E94C5E9FF95C5EAFF4C
:10148000020EE926000EEA22300EEE6E040EED6E1C
:1014900094C5E9FF95C5EAFF8C0EEF6E01D0B66BDF
:1014A0001200D9CFE6FFE1CFD9FFE6529CC5E9FF94
:1014B0009DC5EAFFEF50400B01E0010EDF6E050114
:1014C0009C75080E8F5D09E132C46EFF6E5003E01B
:1014D000100E8F6F02D0040E8F6FA30528E19CC5FC
:1014E000E9FF9DC5EAFF020EE926000EEA22380E4A
:1014F000EE6E040EED6E95DB020E0501A25D07E1B6
:101500009CC5E9FF9DC5EAFF840EEF6E0FD0DF504A
:1015100007E19CC5E9FF9DC5EAFFC80EEF6E06D046
:101520009CC5E9FF9DC5EAFF880EEF6E0FD0ABAFFB
:101530000CD0AE51AF1107E005D0AFC5FAFF0501E1
:10154000AE51F96EFADF0501AB9FA36BE552E55290
:10155000E7CFD9FF120004013051600BE842E842A6
:10156000E842E842E842000901E059D031510C0A52
:1015700055E00B0A44E00C0A36E0010A27E00B0AAA
:1015800023E0020A21E0030A1DE0080A11E0010A33
:101590000CE00F0A08E0030A01E040D00501A68F25
:1015A000080E8F6F3CD014DA3AD013EC0FF037D01E
:1015B0000501900EA46F050EA56FA681010EA76F01
:1015C000A68F2DD065DA2BD02BD829D03451050128
:1015D000A46FA56B910EA427050EA523A681010E6D
:1015E000A76FA68F1CD00501A68F04013451EA6AAB
:1015F000910FE96E050EEA2232C4EFFF10D0000E03
:10160000E66EE66AE66EE66A020EE66EE66A96EC5C
:1016100004F0106E060EE15E105001D000D01200F2
:10162000D9CFE6FFE1CFD9FF050EE126040132054F
:1016300010E130511F0B00090CE10501A68F030ECC
:101640000401315D04E10501010EB26F02D0050114
:10165000B26B0401325101E020D130511F0B02085E
:1016600001E01BD134510F0B000901E116D13451B7
:101670000F0B020801E211D1200E05018F5D01E080
:101680000CD1A68F040134BF1AD034510F0BE96E70
:10169000EA6AD890E936EA36960EE926050EEA227D
:1016A000EECFDEFFEDCFDDFF34510F0BEA6ABA0F4C
:1016B000E96E050EEA22020EEFCFDBFF19D034519E
:1016C0000F0BE96EEA6AD890E936EA369C0EE926F5
:1016D000050EEA22EECFDEFFEDCFDDFF34510F0B1A
:1016E000EA6AB70FE96E050EEA22020EEFCFDBFFC2
:1016F000D950020FE96EDACFEAFFEF50010B03E198
:10170000000EDF9401D0DF8434BF10D034510F0BB2
:10171000E96EEA6AD890E936EA36960EE926050EB1
:10172000EA22DECFEEFFDDCFEDFF0FD034510F0BFD
:10173000E96EEA6AD890E936EA369C0EE926050E8B
:10174000EA22DECFEEFFDDCFEDFF030E315D23E1B8
:10175000DECFE9FFDDCFEAFFEF50800B13E034BFAF
:1017600009D034510F0BEA6ABA0FE96E050EEA226E
:10177000EF8208D034510F0BEA6AB70FE96E050EFD
:10178000EA22EF82840E106EDECFE9FFDDCFEAFFA2
:101790001050EF1282D0DF74DECFE9FFDDCFEAFF19
:1017A000EF50800B1BE0DECFE9FFDDCFEAFFEF9EBD
:1017B000DECFE9FFDDCFEAFFEF8C020EE66EE66AD0
:1017C000DECFE6FFDDCFE6FF050EE66EE66A96ECBD
:1017D00004F0106E060EE15E105005D0DECFE9FF7A
:1017E000DDCFEAFFEF8CDF74D950020FE96EDACF5C
:1017F000EAFFEF50020B07E1DECFE9FFDDCFEAFFA2
:10180000EF50800B2DE0040134BF09D034510F0B91
:10181000EA6ABA0FE96E050EEA22EF9208D0345157
:101820000F0BEA6AB70FE96E050EEA22EF923B0E44
:10183000106EDECFE9FFDDCFEAFF1050EF16020E8B
:10184000E66EE66ADECFE6FFDDCFE6FF050EE66E6A
:10185000E66A96EC04F0106E060EE15E105008D0B9
:101860003B0E106EDECFE9FFDDCFEAFF1050EF1622
:10187000040134510F0B116A700F106E0F0E1122FC
:10188000030E10C0DBFF040E11C0DBFF030EDBCF25
:10189000E9FF040EDBCFEAFFEF90050EE15C02E208
:1018A000E16AE552E16EE552E7CFD9FF120005018A
:1018B000BF514DE1010EBF6FC05149E1010EC06F34
:1018C000020EA35D0DE19CC5E9FF9DC5EAFFEE5246
:1018D000EF6A9CC5E9FF9DC5EAFFC80EEF6E37D0E1
:1018E000A30535E1B66B92C5E9FF93C5EAFFEE5259
:1018F000080EEF6E92C5E9FF93C5EAFF020EE926D6
:10190000000EEA22300EEE6E040EED6E92C5E9FF77
:1019100093C5EAFF840EEF6E010EB66F94C5E9FF22
:1019200095C5EAFFEE52080EEF6E94C5E9FF95C526
:10193000EAFF020EE926000EEA22300EEE6E040ED9
:10194000ED6E94C5E9FF95C5EAFF800EEF6E1200BB
:101950000501C16BC26B020EA35D1AE194C5E9FFDC
:1019600095C5EAFFEE52080EEF6E94C5E9FF95C5E6
:10197000EAFF020EE926000EEA22380EEE6E040E91
:10198000ED6E94C5E9FF95C5EAFFC80EEF6E1FD056
:10199000A7510401365D0501A8510401375904E23D
:1019A00036C4A7F537C4A8F53CD99CC5E9FF9DC549
:1019B000EAFF020EE926000EEA22380EEE6E040E51
:1019C000ED6E9CC5E9FF9DC5EAFFC80EEF6E1200E3
:1019D000800E0401305D5BE10501C00EA66F0401BD
:1019E0003351030A34E0010A0EE0030A03E0050163
:1019F000A66B4DD00501CA0EA46F090EA56F120E7D
:101A0000A76FA86B44D03251F66EF76AD890F636BD
:101A1000F7368B0EF6260A0EF7220900F5CFA4F54D
:101A20000A00F5CFA5F5020E0501F76AA425F66EAA
:101A3000A551F7220800F5CFA7F5030EF76AA425F4
:101A4000F66EA551F7220800F5CFA8F520D0030EB9
:101A5000325D1AE23251F66EF76AD890F636F736F2
:101A60008D0EF6260A0EF7220900F5CFA4F50A001E
:101A7000F5CFA5F5A4C5F6FFA5C5F7FF0800F550FD
:101A80000501A76FA86B02D00501A66B00D012005C
:101A9000D9CFE6FFE1CFD9FF020EE1260401386B72
:101AA000396B30511F0B020A12E0030A0DE0010AE4
:101AB00001E042D00501A68F040138810501B2057D
:101AC00002E10401388338D00501A68F35D0050125
:101AD000A68F040134BF10D034510F0BE96EEA6AAF
:101AE000D890E936EA36960EE926050EEA22EECFC0
:101AF000DEFFEDCFDDFF0FD034510F0BE96EEA6A48
:101B0000D890E936EA369C0EE926050EEA22EECF99
:101B1000DEFFEDCFDDFFDECFE9FFDDCFEAFFEF50E7
:101B2000800B09E0DECFE9FFDDCFEAFFEF50040BC9
:101B300002E0010E386F00D00501A6AF07D0380EC5
:101B4000A46F040EA56FA681020EA76F020EE15CC2
:101B500002E2E16AE552E16EE552E7CFD9FF1200F9
:101B60006D980501A6BF2BD0ABAF09D0020EA36FB5
:101B7000C25101E1EDDE0501C06BBF6B1FD094C502
:101B8000E9FF95C5EAFFEE52080EEF6E94C5E9FF36
:101B900095C5EAFF020EE926000EEA22300EEE6E2F
:101BA000040EED6E94C5E9FF95C5EAFF8C0EEF6E4D
:101BB0009CC5E9FF9DC5EAFF840EEF6E31D004019C
:101BC00030AF0DD00501010EA36FC15101E1C0DEA0
:101BD0000501C06BBF6BBE5101E169DE21D005017B
:101BE000020EA36F94C5E9FF95C5EAFFEE52080EF9
:101BF000EF6E94C5E9FF95C5EAFF020EE926000ED7
:101C0000EA22300EEE6E040EED6E94C5E9FF95C526
:101C1000EAFF840EEF6EC06BBF6BBE5101E147DE81
:101C20001200D9CFE6FFE1CFD9FFE652080EDF6EF2
:101C30000501A75D000EA8590BE2A7C5DFFFA25161
:101C400003E1010EA26F04D0A20502E1020EA26F11
:101C5000DF50106E116A1050A75DA76F1150A85980
:101C6000A86F9CC5E9FF9DC5EAFFEE52DFCFEFFFED
:101C7000380EB06F040EB16FA6B119D0DF5016E068
:101C8000A4C5F6FFA5C5F7FFA42B000EA5230800E9
:101C9000F550E66EB0C5E9FFB1C5EAFFB02B000E06
:101CA000B123E552E750EF6EDF06E8D717D0DF50DB
:101CB00015E0A4C5E9FFA5C5EAFFA42B000EA523E6
:101CC000EF50E66EB0C5E9FFB1C5EAFFB02B000EDC
:101CD000B123E552E750EF6EDF06E9D7E552E55252
:101CE000E7CFD9FF1200D9CFE6FFE1CFD9FF020E2F
:101CF000E12692C5E9FF93C5EAFFEE52EFCFDFFF81
:101D0000DFCF10F010500501AC5D000EAD5902E2BE
:101D1000ACC5DFFFDF50106E116A1050AC5DAC6FC8
:101D20001150AD59AD6F010EDB6ADF50F36E010E3D
:101D3000DBCFF4FFF350F45C16E2010EDB50EA6AED
:101D4000380FE96E040EEA22EF50E66EA9C5E9FFEE
:101D5000AAC5EAFFA92B000EAA23E552E750EF6EB1
:101D6000010EDB2AE2D7000ED880AC55000EAD552F
:101D700028E294C5E9FF95C5EAFFEE52080EEF6E22
:101D800094C5E9FF95C5EAFF020EE926000EEA2296
:101D9000380EEE6E040EED6E92C5E9FF93C5EAFFB4
:101DA000EF50400B07E194C5E9FF95C5EAFFC80E67
:101DB000EF6E06D094C5E9FF95C5EAFF880EEF6E79
:101DC00028D094C5E9FF95C5EAFFEE52080EEF6EE4
:101DD00094C5E9FF95C5EAFF020EE926000EEA2246
:101DE000300EEE6E040EED6E94C5E9FF95C5EAFF68
:101DF000840EEF6EAE51AF1107E005D0AFC5FAFF0C
:101E00000501AE51F96EFADF0501AB9FBE5101E14C
:101E10004EDD020EE15C02E2E16AE552E16EE5525E
:101E2000E7CFD9FF1200D9CFE6FFE1CFD9FFE652C5
:101E30000501A68F020EE66EE66AE66A710EE66E90
:101E40000F0EE66EBDEC05F0106E050EE15E105053
:101E5000DF6ADF50106E116A0C0E105C000E115814
:101E600010E2DF50040DF3CFE9FFF4CFEAFF000EDC
:101E7000E926040EEA22EE6AEE6AEE6AEE6ADF2ACC
:101E8000E8D76D8CDF6A030EDF5C10E2DF50EA6A90
:101E9000B70FE96E050EEA22EF6ADF50EA6ABA0F61
:101EA000E96E050EEA22EF6ADF2AEDD7010EE66E33
:101EB000E66AE66A910EE66E050EE66EBDEC05F08A
:101EC000106E050EE15E10506D9C0501080E9C6FB2
:101ED000040E9D6F000E926F040E936F92C594F5E1
:101EE00093C595F532C490F5905103E1100E8F6FB4
:101EF00013D0010EE66EE66A900EE66E050EE66EF3
:101F0000010EE66EE66A96EC04F0106E060EE15ED7
:101F100010500501200E8F6FE552E552E7CFD9FF33
:101F20001200D9CFE6FFE1CFD9FF020EE126000E65
:101F3000DE6E040EDD6EFD0EDB50E824126EFE0E2A
:101F4000DB50040DF3501224040DF3CF10F0F4CF46
:101F500011F0D9CFE9FFDACFEAFF1050EE26115089
:101F6000ED22DECFE9FFDDCFEAFFEF9EFD0EDB5075
:101F70000FE1FE0EEA6ADB34FE0BEA36E96E960EDE
:101F8000E926050EEA22DECFEEFFDDCFEDFF0ED013
:101F9000FE0EEA6ADB34FE0BEA36E96E9C0EE92699
:101FA000050EEA22DECFEEFFDDCFEDFFDECFE9FF4B
:101FB000DDCFEAFFEF9CDECFE9FFDDCFEAFF040EC5
:101FC000E926000EEA22EF8C020EE15C02E2E16AF1
:101FD000E552E16EE552E7CFD9FF1200D9CFE6FF17
:101FE000E1CFD9FF020EE126FD0EDBA407D0E66AA1
:101FF000FE0EDBCFE6FF95DFE552E552FD0EDBA2DC
:1020000008D0010EE66EFE0EDBCFE6FF8ADFE5525A
:10201000E552FE0EDB50116A700F106E0F0E11228A
:1020200010C0DEFF11C0DDFFDECFE9FFDDCFEAFF2C
:10203000FD0EDBCFEFFF020EE15C02E2E16AE5524A
:10204000E16EE552E7CFD9FF1200D9CFE6FFE1CF2D
:10205000D9FF020EE126FE0EDB5020E194C5E9FF18
:1020600095C5EAFFEE52080EEF6E94C5E9FF95C5DF
:10207000EAFF020EE926000EEA22300EEE6E040E92
:10208000ED6E94C5E9FF95C5EAFF8C0EEF6E9CC519
:10209000E9FF9DC5EAFF840EEF6E3DD0FD0EDB50DB
:1020A000E824126EFE0EDB50040DF3501224040DD2
:1020B000F3CF10F0F4CF11F0000E1026040E112211
:1020C00010C0DEFF11C0DDFF840E106EDECFE9FF11
:1020D000DDCFEAFF1050EF12FD0EDB50E824126E48
:1020E000FE0EDB50040DF3501224010F040DF3CF4C
:1020F00010F0F4CF11F0000E1026040E112210C0C3
:10210000DEFF11C0DDFF840E106EDECFE9FFDDCFF4
:10211000EAFF1050EF12020EE15C02E2E16AE552C2
:10212000E16EE552E7CFD9FF1200D9CFE6FFE1CF4C
:10213000D9FF020EE126FD0EDB500FE0FE0EEA6A2B
:10214000DB34FE0BEA36E96E9C0EE926050EEA2228
:10215000EECFDEFFEDCFDDFF0ED0FE0EEA6ADB3400
:10216000FE0BEA36E96E960EE926050EEA22EECF60
:10217000DEFFEDCFDDFFD9CFE9FFDACFEAFFEE508A
:10218000ED1003E1F36AF46A49D0DECFE9FFDDCF59
:10219000EAFF020EE926000EEA22FB0EDBCFEEFF7D
:1021A000FC0EDBCFEDFFDECFE9FFDDCFEAFFEE5225
:1021B000FA0EDBCFEFFF400E106EDECFE9FFDDCF72
:1021C000EAFF1050EF16880E106EDECFE9FFDDCF6C
:1021D000EAFF1050EF12FD0EDB500CE0FE0EEA6A33
:1021E000DB34FE0BEA36E96E9C0EE926050EEA2288
:1021F000EF740BD0FE0EEA6ADB34FE0BEA36E96EB2
:10220000960EE926050EEA22EF74DECF10F0DDCF40
:1022100011F010C0F3FF11C0F4FF00D0020EE15C1A
:1022200002E2E16AE552E16EE552E7CFD9FF120022
:10223000D9CFE6FFE1CFD9FF6DA84ED0FE0EEA6AF6
:10224000DB34FE0BEA36E96E9C0EE926050EEA2227
:10225000EE50EFCFEAFFE96E400EEE16EE6AEE6A40
:10226000EE6AFE0EEA6ADB34FE0BEA36E96E9C0E7D
:10227000E926050EEA22EE50EFCFEAFFE96EEE7C8A
:10228000FE0EEA6ADB34FE0BEA36E96E9C0EE926A6
:10229000050EEA22EF74400E106EFE0EEA6ADB3481
:1022A000FE0BEA36E96E9C0EE926050EEA22EE5098
:1022B000EFCFEAFFE96E1050EF16FE0EEA6ADB344C
:1022C000FE0BEA36E96E9C0EE926050EEA22EE5078
:1022D000EFCFEAFFE96EEF7CE552E7CFD9FF1200BE
:1022E0006D6A696A05018F6B00D0120005018F517C
:1022F00013E16D6A696A160E6F6E9F0E6B6E7B0E30
:10230000696ED08EA28AA08AF28E6DB602D06D86DA
:0A231000FCD70501010E8F6F1200CB
:020000040030CA
:0100000024DB
:010001000EF0
:010002003FBE
:010003001EDE
:010005008179
:010006008178
:010008000FE8
:01000900C036
:01000A000FE6
:01000B00E014
:01000C000FE4
:01000D0040B2
:00000001FF
